:100000000A128A11FC2F00308A000408840A820731
:100010000034013400340A34003464340034E834E9
:1000200003341034273459344F344E343A342034A6
:10003000253473342C342034483449345A343A3417
:10004000203425347534253425340D340A340034F5
:1000500028346E3475346C346C34293400344934AB
:100060006C34653472346934003444347534723419
:100070006434753400344734653472346934003480
:100A14008030831603139F004130831203139F0019
:100A24000800831603130711F93092000C30831267
:100A3400031397000430920008008316031307136E
:100A44008717193099001815181283120313981771
:100A5400831603139816080000307102FA30031944
:100A64007002031C392DF930F0000030F1007008D9
:100A74008312031395000800F100710884008313A6
:100A8400000803190800831203130C1E452D710876
:100A940084008313000899000130F0007008F10706
:100AA4003F2DF401F501701C5D2D7208F407031845
:100AB400F50A7308F50701300310F20DF30DFF3E3C
:100AC400031D5E2D01300310F10CF00CFF3E031DDD
:100AD400652D70087104031D552D7508F100740807
:100AE400F0000800F400C530F2007208831203130A
:100AF4009F057408F20002300310F20DFF3E031D3F
:100B04007E2D0310720DF30073089F040330F3006D
:100B14009730F200F20B8C2DF30B8C2D912D831258
:100B240003131F151F19942D1E08F10083160313B8
:100B34001E08F0000800831203132008210403197F
:100B4400CC2DA501A50AA11BB32D01300310A00DC6
:100B5400A10DFF3E031DA82D0130A4002408A50704
:100B6400A52D21082302031DB92D20082202031CF0
:100B7400C12D2008A2022108031CA303A3020130F3
:100B84000310A10CA00CFF3E031DC22D0130A502D1
:100B9400031DB32D2308A1002208A0000800FB01B7
:100BA400FC01760877040319082EFD01FD0AF71BE2
:100BB400E72D01300310F60DF70DFF3E031DDC2D6C
:100BC4000130FA007A08FD07D92D01300310FB0D1E
:100BD400FC0DFF3E031DE82D77087902031DF42D5B
:100BE40076087802031CFD2D7608F8027708031CAA
:100BF400F903F9027B1401300310F70CF60CFF3EE5
:100C0400031DFE2D0130FD02031DE72D7C08F700B6
:100C14007B08F600080083120313B3002730AA00F0
:100C24002A08B1000130A607FF30260784000A1203
:100C34008A1103200A128A11AA002A08B40034086F
:100C44000319FB2E25303406031D5B2EAD016C2EDB
:100C54003108840083130008AA002A08B200013076
:100C6400AA002A08B1073208031D3C2E2030AA002E
:100C74002A08B200320884000A128A1103200A12D8
:100C84008A11003A0319142E320884000A128A11B8
:100C940003200A128A11AA00330884002A0880005B
:100CA4000130AA002A08B2070130AA002A08B307B3
:100CB4003C2E3408AA00330884002A0883138000D9
:100CC4000130AA002A08B307142EC030AA002A084B
:100CD400AD04812E0130A607FF30260784000A12D6
:100CE4008A1103200A128A11B400003A0319FB2E58
:100CF400733A03192A2E063A0319672E5B2E31081C
:100D0400840083130008AE00840A0008AF00023098
:100D1400AA002A08B107B401B40A0530340603193D
:100D2400B42E3408AA002A07013E84000A128A114C
:100D340003200A128A11AB000A128A1103200A1234
:100D44008A11AC002C082F02031DAA2E2B082E0298
:100D5400031CB42E0130AA002A08B4070530340657
:100D6400031D932E3408AA002A08B000FF30AA00FD
:100D74002A08B007300A0319142E0A30A0000030E4
:100D8400A1003008AA002A07013E84000A128A1131
:100D940003200A128A11F6000A128A1103200A1289
:100DA4008A11F7002F08F9002E08F8000A128A1198
:100DB400D1250A128A11770883120313A300760837
:100DC400A2000A128A119D250A128A1183120313A2
:100DD4002008303EAB002B08B4003408AA003308C6
:100DE40084002A08831380000130AA002A08B3076C
:100DF400B82E330884008313800108000A128A1174
:100E04001F250A128A110A128A1113250A128A113D
:100E14000A128A110A250A128A118316031307106B
:100E2400871000300A128A1174250A128A11710877
:100E340083120313E4007008E30001300A128A11DC
:100E440074250A128A11710883120313E8007008CA
:100E5400E70002306402593003196302031C342F83
:100E640007143F2F01306402903003196302031802
:100E74003E2F07108714402F07108710E501E60165
:100E840002306802593003196702031C552FFF30E2
:100E9400F6000130F7006708003EF0006808031808
:100EA400013EFE3E6E2F0130680290300319670246
:100EB4000318872FFF30F6000130F7006709B500EB
:100EC4006809B600B50A0319B60A3508003EF000F1
:100ED40036080318013E023EF100F930F2000030FA
:100EE400F3000A128A1153250A128A117108F900B3
:100EF4007008F8000A128A11D1250A128A1177089B
:100F040083120313E6007608E5006608F10065081D
:100F1400F0000A128A112E250A128A11F930F600FD
:100F24000030F700831203136608F1006508F0002F
:100F34006430F2000030F3000A128A1153250A12B9
:100F44008A117108F9007008F8000A128A11D12573
:100F54000A128A11770883120313E1007608E0006D
:100F64002D30B5003508E20007188718BB2F27304D
:100F7400BF2F87180718C22F3330B5003508E20099
:100F84000B30B5003508A6006208B6003608A70085
:100F94006008E53EF00061080318013EFF3EF100E1
:100FA4000630F2000030F3000A128A1153250A12A7
:100FB4008A11710883120313A9007008A80038303D
:100FC4000A128A110D260A128A1138300A128A115D
:100FD4003E250A128A11033083120313B7008A30A4
:100FE400B6005530B500B50BF52FB60BF52FB70B82
:0C0FF400F52F132F83010A128A11002F21
:02400E007A3FF7
:00000001FF
